{
  "contractName": "KeyRegistration",
  "abi": [
    {
      "anonymous": false,
      "inputs": [
        {
          "indexed": true,
          "internalType": "address",
          "name": "ownerAddress",
          "type": "address"
        },
        {
          "indexed": true,
          "internalType": "string",
          "name": "userId",
          "type": "string"
        }
      ],
      "name": "KeyBundleRegistered",
      "type": "event"
    },
    {
      "anonymous": false,
      "inputs": [
        {
          "indexed": true,
          "internalType": "address",
          "name": "ownerAddress",
          "type": "address"
        },
        {
          "indexed": true,
          "internalType": "string",
          "name": "keyId",
          "type": "string"
        }
      ],
      "name": "KeyBundleRevoked",
      "type": "event"
    },
    {
      "constant": true,
      "inputs": [
        {
          "internalType": "address",
          "name": "",
          "type": "address"
        }
      ],
      "name": "keyBundles",
      "outputs": [
        {
          "internalType": "string",
          "name": "keyId",
          "type": "string"
        },
        {
          "internalType": "string",
          "name": "userId",
          "type": "string"
        },
        {
          "internalType": "string",
          "name": "idPublicKey",
          "type": "string"
        },
        {
          "internalType": "string",
          "name": "preKeyPub",
          "type": "string"
        },
        {
          "internalType": "string",
          "name": "signedPreKeyPub",
          "type": "string"
        },
        {
          "internalType": "string",
          "name": "signature",
          "type": "string"
        },
        {
          "internalType": "string",
          "name": "userSign",
          "type": "string"
        }
      ],
      "payable": false,
      "stateMutability": "view",
      "type": "function"
    },
    {
      "constant": false,
      "inputs": [
        {
          "internalType": "string",
          "name": "keyId",
          "type": "string"
        },
        {
          "internalType": "string",
          "name": "userId",
          "type": "string"
        },
        {
          "internalType": "string",
          "name": "idPublicKey",
          "type": "string"
        },
        {
          "internalType": "string",
          "name": "preKeyPub",
          "type": "string"
        },
        {
          "internalType": "string",
          "name": "signedPreKeyPub",
          "type": "string"
        },
        {
          "internalType": "string",
          "name": "signature",
          "type": "string"
        },
        {
          "internalType": "string",
          "name": "userSign",
          "type": "string"
        }
      ],
      "name": "createKeyBundle",
      "outputs": [],
      "payable": false,
      "stateMutability": "nonpayable",
      "type": "function"
    },
    {
      "constant": true,
      "inputs": [
        {
          "internalType": "address",
          "name": "owner",
          "type": "address"
        }
      ],
      "name": "getKeyBundle",
      "outputs": [
        {
          "internalType": "string",
          "name": "keyId",
          "type": "string"
        },
        {
          "internalType": "string",
          "name": "userId",
          "type": "string"
        },
        {
          "internalType": "string",
          "name": "idPublicKey",
          "type": "string"
        },
        {
          "internalType": "string",
          "name": "preKeyPub",
          "type": "string"
        },
        {
          "internalType": "string",
          "name": "signedPreKeyPub",
          "type": "string"
        },
        {
          "internalType": "string",
          "name": "signature",
          "type": "string"
        },
        {
          "internalType": "string",
          "name": "userSign",
          "type": "string"
        }
      ],
      "payable": false,
      "stateMutability": "view",
      "type": "function"
    },
    {
      "constant": true,
      "inputs": [
        {
          "internalType": "address",
          "name": "owner",
          "type": "address"
        }
      ],
      "name": "isRegistered",
      "outputs": [
        {
          "internalType": "bool",
          "name": "",
          "type": "bool"
        }
      ],
      "payable": false,
      "stateMutability": "view",
      "type": "function"
    }
  ],
  "bytecode": "0x608060405234801561001057600080fd5b5061185d806100206000396000f3fe608060405234801561001057600080fd5b506004361061004c5760003560e01c80631c2e8edc1461005157806325c9f3aa14610496578063a37b127d146107db578063c3c5a54714610b20575b600080fd5b610494600480360360e081101561006757600080fd5b810190808035906020019064010000000081111561008457600080fd5b82018360208201111561009657600080fd5b803590602001918460018302840111640100000000831117156100b857600080fd5b91908080601f016020809104026020016040519081016040528093929190818152602001838380828437600081840152601f19601f8201169050808301925050505050505091929192908035906020019064010000000081111561011b57600080fd5b82018360208201111561012d57600080fd5b8035906020019184600183028401116401000000008311171561014f57600080fd5b91908080601f016020809104026020016040519081016040528093929190818152602001838380828437600081840152601f19601f820116905080830192505050505050509192919290803590602001906401000000008111156101b257600080fd5b8201836020820111156101c457600080fd5b803590602001918460018302840111640100000000831117156101e657600080fd5b91908080601f016020809104026020016040519081016040528093929190818152602001838380828437600081840152601f19601f8201169050808301925050505050505091929192908035906020019064010000000081111561024957600080fd5b82018360208201111561025b57600080fd5b8035906020019184600183028401116401000000008311171561027d57600080fd5b91908080601f016020809104026020016040519081016040528093929190818152602001838380828437600081840152601f19601f820116905080830192505050505050509192919290803590602001906401000000008111156102e057600080fd5b8201836020820111156102f257600080fd5b8035906020019184600183028401116401000000008311171561031457600080fd5b91908080601f016020809104026020016040519081016040528093929190818152602001838380828437600081840152601f19601f8201169050808301925050505050505091929192908035906020019064010000000081111561037757600080fd5b82018360208201111561038957600080fd5b803590602001918460018302840111640100000000831117156103ab57600080fd5b91908080601f016020809104026020016040519081016040528093929190818152602001838380828437600081840152601f19601f8201169050808301925050505050505091929192908035906020019064010000000081111561040e57600080fd5b82018360208201111561042057600080fd5b8035906020019184600183028401116401000000008311171561044257600080fd5b91908080601f016020809104026020016040519081016040528093929190818152602001838380828437600081840152601f19601f820116905080830192505050505050509192919290505050610b7c565b005b6104d8600480360360208110156104ac57600080fd5b81019080803573ffffffffffffffffffffffffffffffffffffffff169060200190929190505050610d68565b604051808060200180602001806020018060200180602001806020018060200188810388528f818151815260200191508051906020019080838360005b83811015610530578082015181840152602081019050610515565b50505050905090810190601f16801561055d5780820380516001836020036101000a031916815260200191505b5088810387528e818151815260200191508051906020019080838360005b8381101561059657808201518184015260208101905061057b565b50505050905090810190601f1680156105c35780820380516001836020036101000a031916815260200191505b5088810386528d818151815260200191508051906020019080838360005b838110156105fc5780820151818401526020810190506105e1565b50505050905090810190601f1680156106295780820380516001836020036101000a031916815260200191505b5088810385528c818151815260200191508051906020019080838360005b83811015610662578082015181840152602081019050610647565b50505050905090810190601f16801561068f5780820380516001836020036101000a031916815260200191505b5088810384528b818151815260200191508051906020019080838360005b838110156106c85780820151818401526020810190506106ad565b50505050905090810190601f1680156106f55780820380516001836020036101000a031916815260200191505b5088810383528a818151815260200191508051906020019080838360005b8381101561072e578082015181840152602081019050610713565b50505050905090810190601f16801561075b5780820380516001836020036101000a031916815260200191505b50888103825289818151815260200191508051906020019080838360005b83811015610794578082015181840152602081019050610779565b50505050905090810190601f1680156107c15780820380516001836020036101000a031916815260200191505b509e50505050505050505050505050505060405180910390f35b61081d600480360360208110156107f157600080fd5b81019080803573ffffffffffffffffffffffffffffffffffffffff1690602001909291905050506111d2565b604051808060200180602001806020018060200180602001806020018060200188810388528f818151815260200191508051906020019080838360005b8381101561087557808201518184015260208101905061085a565b50505050905090810190601f1680156108a25780820380516001836020036101000a031916815260200191505b5088810387528e818151815260200191508051906020019080838360005b838110156108db5780820151818401526020810190506108c0565b50505050905090810190601f1680156109085780820380516001836020036101000a031916815260200191505b5088810386528d818151815260200191508051906020019080838360005b83811015610941578082015181840152602081019050610926565b50505050905090810190601f16801561096e5780820380516001836020036101000a031916815260200191505b5088810385528c818151815260200191508051906020019080838360005b838110156109a757808201518184015260208101905061098c565b50505050905090810190601f1680156109d45780820380516001836020036101000a031916815260200191505b5088810384528b818151815260200191508051906020019080838360005b83811015610a0d5780820151818401526020810190506109f2565b50505050905090810190601f168015610a3a5780820380516001836020036101000a031916815260200191505b5088810383528a818151815260200191508051906020019080838360005b83811015610a73578082015181840152602081019050610a58565b50505050905090810190601f168015610aa05780820380516001836020036101000a031916815260200191505b50888103825289818151815260200191508051906020019080838360005b83811015610ad9578082015181840152602081019050610abe565b50505050905090810190601f168015610b065780820380516001836020036101000a031916815260200191505b509e50505050505050505050505050505060405180910390f35b610b6260048036036020811015610b3657600080fd5b81019080803573ffffffffffffffffffffffffffffffffffffffff169060200190929190505050611684565b604051808215151515815260200191505060405180910390f35b6040518060e00160405280888152602001878152602001868152602001858152602001848152602001838152602001828152506000803373ffffffffffffffffffffffffffffffffffffffff1673ffffffffffffffffffffffffffffffffffffffff1681526020019081526020016000206000820151816000019080519060200190610c09929190611783565b506020820151816001019080519060200190610c26929190611783565b506040820151816002019080519060200190610c43929190611783565b506060820151816003019080519060200190610c60929190611783565b506080820151816004019080519060200190610c7d929190611783565b5060a0820151816005019080519060200190610c9a929190611783565b5060c0820151816006019080519060200190610cb7929190611783565b50905050856040518082805190602001908083835b60208310610cef5780518252602082019150602081019050602083039250610ccc565b6001836020036101000a03801982511681845116808217855250505050505090500191505060405180910390203373ffffffffffffffffffffffffffffffffffffffff167f7dc4275d5934858fca3464255d9b5d5fcc11e92be106a2005a8ed67e17e4362160405160405180910390a350505050505050565b6000602052806000526040600020600091509050806000018054600181600116156101000203166002900480601f016020809104026020016040519081016040528092919081815260200182805460018160011615610100020316600290048015610e145780601f10610de957610100808354040283529160200191610e14565b820191906000526020600020905b815481529060010190602001808311610df757829003601f168201915b505050505090806001018054600181600116156101000203166002900480601f016020809104026020016040519081016040528092919081815260200182805460018160011615610100020316600290048015610eb25780601f10610e8757610100808354040283529160200191610eb2565b820191906000526020600020905b815481529060010190602001808311610e9557829003601f168201915b505050505090806002018054600181600116156101000203166002900480601f016020809104026020016040519081016040528092919081815260200182805460018160011615610100020316600290048015610f505780601f10610f2557610100808354040283529160200191610f50565b820191906000526020600020905b815481529060010190602001808311610f3357829003601f168201915b505050505090806003018054600181600116156101000203166002900480601f016020809104026020016040519081016040528092919081815260200182805460018160011615610100020316600290048015610fee5780601f10610fc357610100808354040283529160200191610fee565b820191906000526020600020905b815481529060010190602001808311610fd157829003601f168201915b505050505090806004018054600181600116156101000203166002900480601f01602080910402602001604051908101604052809291908181526020018280546001816001161561010002031660029004801561108c5780601f106110615761010080835404028352916020019161108c565b820191906000526020600020905b81548152906001019060200180831161106f57829003601f168201915b505050505090806005018054600181600116156101000203166002900480601f01602080910402602001604051908101604052809291908181526020018280546001816001161561010002031660029004801561112a5780601f106110ff5761010080835404028352916020019161112a565b820191906000526020600020905b81548152906001019060200180831161110d57829003601f168201915b505050505090806006018054600181600116156101000203166002900480601f0160208091040260200160405190810160405280929190818152602001828054600181600116156101000203166002900480156111c85780601f1061119d576101008083540402835291602001916111c8565b820191906000526020600020905b8154815290600101906020018083116111ab57829003601f168201915b5050505050905087565b606080606080606080606060008060008a73ffffffffffffffffffffffffffffffffffffffff1673ffffffffffffffffffffffffffffffffffffffff1681526020019081526020016000209050806000018054600181600116156101000203166002900480601f0160208091040260200160405190810160405280929190818152602001828054600181600116156101000203166002900480156112b75780601f1061128c576101008083540402835291602001916112b7565b820191906000526020600020905b81548152906001019060200180831161129a57829003601f168201915b50505050509750806001018054600181600116156101000203166002900480601f0160208091040260200160405190810160405280929190818152602001828054600181600116156101000203166002900480156113565780601f1061132b57610100808354040283529160200191611356565b820191906000526020600020905b81548152906001019060200180831161133957829003601f168201915b50505050509650806002018054600181600116156101000203166002900480601f0160208091040260200160405190810160405280929190818152602001828054600181600116156101000203166002900480156113f55780601f106113ca576101008083540402835291602001916113f5565b820191906000526020600020905b8154815290600101906020018083116113d857829003601f168201915b50505050509550806003018054600181600116156101000203166002900480601f0160208091040260200160405190810160405280929190818152602001828054600181600116156101000203166002900480156114945780601f1061146957610100808354040283529160200191611494565b820191906000526020600020905b81548152906001019060200180831161147757829003601f168201915b50505050509450806004018054600181600116156101000203166002900480601f0160208091040260200160405190810160405280929190818152602001828054600181600116156101000203166002900480156115335780601f1061150857610100808354040283529160200191611533565b820191906000526020600020905b81548152906001019060200180831161151657829003601f168201915b50505050509350806005018054600181600116156101000203166002900480601f0160208091040260200160405190810160405280929190818152602001828054600181600116156101000203166002900480156115d25780601f106115a7576101008083540402835291602001916115d2565b820191906000526020600020905b8154815290600101906020018083116115b557829003601f168201915b50505050509250806006018054600181600116156101000203166002900480601f0160208091040260200160405190810160405280929190818152602001828054600181600116156101000203166002900480156116715780601f1061164657610100808354040283529160200191611671565b820191906000526020600020905b81548152906001019060200180831161165457829003601f168201915b5050505050915050919395979092949650565b600060606000808473ffffffffffffffffffffffffffffffffffffffff1673ffffffffffffffffffffffffffffffffffffffff1681526020019081526020016000206000018054600181600116156101000203166002900480601f01602080910402602001604051908101604052809291908181526020018280546001816001161561010002031660029004801561175d5780601f106117325761010080835404028352916020019161175d565b820191906000526020600020905b81548152906001019060200180831161174057829003601f168201915b5050505050905060008151141561177857600091505061177e565b60019150505b919050565b828054600181600116156101000203166002900490600052602060002090601f016020900481019282601f106117c457805160ff19168380011785556117f2565b828001600101855582156117f2579182015b828111156117f15782518255916020019190600101906117d6565b5b5090506117ff9190611803565b5090565b61182591905b80821115611821576000816000905550600101611809565b5090565b9056fea265627a7a72315820e90fb9d79c9e02d80a1a8c29740d6e0db9a0cff12675cb5df370c5e3c7be54b764736f6c63430005100032",
  "source": "pragma solidity ^0.5.0;\n\ncontract KeyRegistration {\n    // struct PreKey {\n    //     string preKeyId;\n    //     string preKeyPub;\n    //     bool isUsed;\n    // }\n\n    struct KeyBundle {\n        string keyId;\n        string userId;\n        string idPublicKey;\n        // PreKey[] preKeys;\n        string preKeyPub;\n        string signedPreKeyPub;\n        string signature;\n        string userSign;\n    }\n\n    mapping(address => KeyBundle) public keyBundles;\n\n    event KeyBundleRegistered(\n        address indexed ownerAddress,\n        string indexed userId\n    );\n    event KeyBundleRevoked(address indexed ownerAddress, string indexed keyId);\n\n    function createKeyBundle(\n        string memory keyId,\n        string memory userId,\n        string memory idPublicKey,\n        string memory preKeyPub,\n        string memory signedPreKeyPub,\n        string memory signature,\n        string memory userSign // PreKey[] memory preKeys\n    ) public {\n        // KeyBundle kb =\n        //     KeyBundle({\n        //         userId: // keyId: keyId,\n        //         userId,\n        //         idPublicKey: idPublicKey,\n        //         preKeys: // preKeyPub: preKeyPub,\n        //         prekeys,\n        //         signedPreKeyPub: signedPreKeyPub,\n        //         signature: signature,\n        //         userSign: userSign\n        //     });\n\n        keyBundles[msg.sender] = KeyBundle({\n            keyId: keyId,\n            userId: userId,\n            idPublicKey: idPublicKey,\n            preKeyPub: preKeyPub, // preKeys: new PreKey[](5),\n            signedPreKeyPub: signedPreKeyPub,\n            signature: signature,\n            userSign: userSign\n        });\n\n        emit KeyBundleRegistered(msg.sender, userId);\n        // return keyBundleId;\n    }\n\n    function getKeyBundle(address owner)\n        public\n        view\n        returns (\n            string memory keyId,\n            string memory userId,\n            string memory idPublicKey,\n            string memory preKeyPub,\n            string memory signedPreKeyPub,\n            string memory signature,\n            string memory userSign\n        )\n    {\n        KeyBundle storage keyBundle = keyBundles[owner];\n        // uint256 len = keyBundle.preKeys.length;\n        // PreKey memory preKey;\n        // for (uint256 i = 0; i < len; i++) {\n        //     if (!keyBundle.preKeys[i].isUsed) {\n        //         preKey = keyBundle.preKeys[i];\n        //         keyBundles[owner].preKeys[i].isUsed = true;\n        //         // keyBundle.preKeys[i].isUsed = true;\n        //         // keyBundles[owner] = keyBundle;\n        //         break;\n        //     }\n        // }\n\n        keyId = keyBundle.keyId;\n        userId = keyBundle.userId;\n        idPublicKey = keyBundle.idPublicKey;\n        preKeyPub = keyBundle.preKeyPub;\n        signedPreKeyPub = keyBundle.signedPreKeyPub;\n        signature = keyBundle.signature;\n        userSign = keyBundle.userSign;\n    }\n\n    function isRegistered(address owner) public view returns (bool) {\n        bytes memory temp = bytes(keyBundles[owner].keyId);\n        if (temp.length == 0) {\n            return false;\n        }\n        return true;\n        // PreKey[] memory preKeys = keyBundles[owner].preKeys;\n        // uint256 len = preKeys.length;\n        // for (uint256 i = 0; i < len; i++) {\n        //     if (!preKeys[i].isUsed) {\n        //         return true;\n        //     }\n        // }\n        // return false;\n    }\n}\n",
  "sourcePath": "/home/fatt/project/TA/yama/src/truffle/contracts/KeyRegistration.sol",
  "compiler": {
    "name": "solc",
    "version": "0.5.16+commit.9c3226ce.Emscripten.clang"
  },
  "schemaVersion": "3.3.4",
  "updatedAt": "2021-09-02T00:19:18.857Z",
  "networkType": "ethereum",
  "devdoc": {
    "methods": {}
  },
  "userdoc": {
    "methods": {}
  }
}