{
  "contractName": "KeyRegistration",
  "abi": [
    {
      "anonymous": false,
      "inputs": [
        {
          "indexed": true,
          "internalType": "address",
          "name": "ownerAddress",
          "type": "address"
        },
        {
          "indexed": true,
          "internalType": "string",
          "name": "keyId",
          "type": "string"
        },
        {
          "indexed": true,
          "internalType": "string",
          "name": "userId",
          "type": "string"
        }
      ],
      "name": "KeyBundleRegistered",
      "type": "event"
    },
    {
      "anonymous": false,
      "inputs": [
        {
          "indexed": true,
          "internalType": "address",
          "name": "ownerAddress",
          "type": "address"
        }
      ],
      "name": "KeyBundleRevoked",
      "type": "event"
    },
    {
      "constant": true,
      "inputs": [
        {
          "internalType": "address",
          "name": "",
          "type": "address"
        }
      ],
      "name": "keyBundles",
      "outputs": [
        {
          "internalType": "string",
          "name": "keyId",
          "type": "string"
        },
        {
          "internalType": "string",
          "name": "userId",
          "type": "string"
        },
        {
          "internalType": "string",
          "name": "idPublicKey",
          "type": "string"
        },
        {
          "internalType": "string",
          "name": "preKeyPub",
          "type": "string"
        },
        {
          "internalType": "string",
          "name": "signedPreKeyPub",
          "type": "string"
        },
        {
          "internalType": "string",
          "name": "signature",
          "type": "string"
        },
        {
          "internalType": "string",
          "name": "userSign",
          "type": "string"
        }
      ],
      "payable": false,
      "stateMutability": "view",
      "type": "function"
    },
    {
      "constant": false,
      "inputs": [
        {
          "internalType": "string",
          "name": "keyId",
          "type": "string"
        },
        {
          "internalType": "string",
          "name": "userId",
          "type": "string"
        },
        {
          "internalType": "string",
          "name": "idPublicKey",
          "type": "string"
        },
        {
          "internalType": "string",
          "name": "preKeyPub",
          "type": "string"
        },
        {
          "internalType": "string",
          "name": "signedPreKeyPub",
          "type": "string"
        },
        {
          "internalType": "string",
          "name": "signature",
          "type": "string"
        },
        {
          "internalType": "string",
          "name": "userSign",
          "type": "string"
        }
      ],
      "name": "createKeyBundle",
      "outputs": [],
      "payable": false,
      "stateMutability": "nonpayable",
      "type": "function"
    },
    {
      "constant": true,
      "inputs": [
        {
          "internalType": "address",
          "name": "owner",
          "type": "address"
        }
      ],
      "name": "getKeyBundle",
      "outputs": [
        {
          "internalType": "string",
          "name": "keyId",
          "type": "string"
        },
        {
          "internalType": "string",
          "name": "userId",
          "type": "string"
        },
        {
          "internalType": "string",
          "name": "idPublicKey",
          "type": "string"
        },
        {
          "internalType": "string",
          "name": "preKeyPub",
          "type": "string"
        },
        {
          "internalType": "string",
          "name": "signedPreKeyPub",
          "type": "string"
        },
        {
          "internalType": "string",
          "name": "signature",
          "type": "string"
        },
        {
          "internalType": "string",
          "name": "userSign",
          "type": "string"
        }
      ],
      "payable": false,
      "stateMutability": "view",
      "type": "function"
    },
    {
      "constant": false,
      "inputs": [
        {
          "internalType": "address",
          "name": "owner",
          "type": "address"
        }
      ],
      "name": "revokeKeyBundle",
      "outputs": [],
      "payable": false,
      "stateMutability": "nonpayable",
      "type": "function"
    },
    {
      "constant": true,
      "inputs": [
        {
          "internalType": "address",
          "name": "owner",
          "type": "address"
        }
      ],
      "name": "isRegistered",
      "outputs": [
        {
          "internalType": "bool",
          "name": "",
          "type": "bool"
        }
      ],
      "payable": false,
      "stateMutability": "view",
      "type": "function"
    }
  ],
  "bytecode": "0x608060405234801561001057600080fd5b50611a38806100206000396000f3fe608060405234801561001057600080fd5b50600436106100575760003560e01c80631c2e8edc1461005c57806325c9f3aa146104a1578063a37b127d146107e6578063c3c5a54714610b2b578063dd17caa114610b87575b600080fd5b61049f600480360360e081101561007257600080fd5b810190808035906020019064010000000081111561008f57600080fd5b8201836020820111156100a157600080fd5b803590602001918460018302840111640100000000831117156100c357600080fd5b91908080601f016020809104026020016040519081016040528093929190818152602001838380828437600081840152601f19601f8201169050808301925050505050505091929192908035906020019064010000000081111561012657600080fd5b82018360208201111561013857600080fd5b8035906020019184600183028401116401000000008311171561015a57600080fd5b91908080601f016020809104026020016040519081016040528093929190818152602001838380828437600081840152601f19601f820116905080830192505050505050509192919290803590602001906401000000008111156101bd57600080fd5b8201836020820111156101cf57600080fd5b803590602001918460018302840111640100000000831117156101f157600080fd5b91908080601f016020809104026020016040519081016040528093929190818152602001838380828437600081840152601f19601f8201169050808301925050505050505091929192908035906020019064010000000081111561025457600080fd5b82018360208201111561026657600080fd5b8035906020019184600183028401116401000000008311171561028857600080fd5b91908080601f016020809104026020016040519081016040528093929190818152602001838380828437600081840152601f19601f820116905080830192505050505050509192919290803590602001906401000000008111156102eb57600080fd5b8201836020820111156102fd57600080fd5b8035906020019184600183028401116401000000008311171561031f57600080fd5b91908080601f016020809104026020016040519081016040528093929190818152602001838380828437600081840152601f19601f8201169050808301925050505050505091929192908035906020019064010000000081111561038257600080fd5b82018360208201111561039457600080fd5b803590602001918460018302840111640100000000831117156103b657600080fd5b91908080601f016020809104026020016040519081016040528093929190818152602001838380828437600081840152601f19601f8201169050808301925050505050505091929192908035906020019064010000000081111561041957600080fd5b82018360208201111561042b57600080fd5b8035906020019184600183028401116401000000008311171561044d57600080fd5b91908080601f016020809104026020016040519081016040528093929190818152602001838380828437600081840152601f19601f820116905080830192505050505050509192919290505050610bcb565b005b6104e3600480360360208110156104b757600080fd5b81019080803573ffffffffffffffffffffffffffffffffffffffff169060200190929190505050610e18565b604051808060200180602001806020018060200180602001806020018060200188810388528f818151815260200191508051906020019080838360005b8381101561053b578082015181840152602081019050610520565b50505050905090810190601f1680156105685780820380516001836020036101000a031916815260200191505b5088810387528e818151815260200191508051906020019080838360005b838110156105a1578082015181840152602081019050610586565b50505050905090810190601f1680156105ce5780820380516001836020036101000a031916815260200191505b5088810386528d818151815260200191508051906020019080838360005b838110156106075780820151818401526020810190506105ec565b50505050905090810190601f1680156106345780820380516001836020036101000a031916815260200191505b5088810385528c818151815260200191508051906020019080838360005b8381101561066d578082015181840152602081019050610652565b50505050905090810190601f16801561069a5780820380516001836020036101000a031916815260200191505b5088810384528b818151815260200191508051906020019080838360005b838110156106d35780820151818401526020810190506106b8565b50505050905090810190601f1680156107005780820380516001836020036101000a031916815260200191505b5088810383528a818151815260200191508051906020019080838360005b8381101561073957808201518184015260208101905061071e565b50505050905090810190601f1680156107665780820380516001836020036101000a031916815260200191505b50888103825289818151815260200191508051906020019080838360005b8381101561079f578082015181840152602081019050610784565b50505050905090810190601f1680156107cc5780820380516001836020036101000a031916815260200191505b509e50505050505050505050505050505060405180910390f35b610828600480360360208110156107fc57600080fd5b81019080803573ffffffffffffffffffffffffffffffffffffffff169060200190929190505050611282565b604051808060200180602001806020018060200180602001806020018060200188810388528f818151815260200191508051906020019080838360005b83811015610880578082015181840152602081019050610865565b50505050905090810190601f1680156108ad5780820380516001836020036101000a031916815260200191505b5088810387528e818151815260200191508051906020019080838360005b838110156108e65780820151818401526020810190506108cb565b50505050905090810190601f1680156109135780820380516001836020036101000a031916815260200191505b5088810386528d818151815260200191508051906020019080838360005b8381101561094c578082015181840152602081019050610931565b50505050905090810190601f1680156109795780820380516001836020036101000a031916815260200191505b5088810385528c818151815260200191508051906020019080838360005b838110156109b2578082015181840152602081019050610997565b50505050905090810190601f1680156109df5780820380516001836020036101000a031916815260200191505b5088810384528b818151815260200191508051906020019080838360005b83811015610a185780820151818401526020810190506109fd565b50505050905090810190601f168015610a455780820380516001836020036101000a031916815260200191505b5088810383528a818151815260200191508051906020019080838360005b83811015610a7e578082015181840152602081019050610a63565b50505050905090810190601f168015610aab5780820380516001836020036101000a031916815260200191505b50888103825289818151815260200191508051906020019080838360005b83811015610ae4578082015181840152602081019050610ac9565b50505050905090810190601f168015610b115780820380516001836020036101000a031916815260200191505b509e50505050505050505050505050505060405180910390f35b610b6d60048036036020811015610b4157600080fd5b81019080803573ffffffffffffffffffffffffffffffffffffffff169060200190929190505050611734565b604051808215151515815260200191505060405180910390f35b610bc960048036036020811015610b9d57600080fd5b81019080803573ffffffffffffffffffffffffffffffffffffffff169060200190929190505050611833565b005b6040518060e00160405280888152602001878152602001868152602001858152602001848152602001838152602001828152506000803373ffffffffffffffffffffffffffffffffffffffff1673ffffffffffffffffffffffffffffffffffffffff1681526020019081526020016000206000820151816000019080519060200190610c589291906118de565b506020820151816001019080519060200190610c759291906118de565b506040820151816002019080519060200190610c929291906118de565b506060820151816003019080519060200190610caf9291906118de565b506080820151816004019080519060200190610ccc9291906118de565b5060a0820151816005019080519060200190610ce99291906118de565b5060c0820151816006019080519060200190610d069291906118de565b50905050856040518082805190602001908083835b60208310610d3e5780518252602082019150602081019050602083039250610d1b565b6001836020036101000a0380198251168184511680821785525050505050509050019150506040518091039020876040518082805190602001908083835b60208310610d9f5780518252602082019150602081019050602083039250610d7c565b6001836020036101000a03801982511681845116808217855250505050505090500191505060405180910390203373ffffffffffffffffffffffffffffffffffffffff167f206631df7d3d790111950a1f6481c405f1ed4eea806a6a75bfb69873187e22cf60405160405180910390a450505050505050565b6000602052806000526040600020600091509050806000018054600181600116156101000203166002900480601f016020809104026020016040519081016040528092919081815260200182805460018160011615610100020316600290048015610ec45780601f10610e9957610100808354040283529160200191610ec4565b820191906000526020600020905b815481529060010190602001808311610ea757829003601f168201915b505050505090806001018054600181600116156101000203166002900480601f016020809104026020016040519081016040528092919081815260200182805460018160011615610100020316600290048015610f625780601f10610f3757610100808354040283529160200191610f62565b820191906000526020600020905b815481529060010190602001808311610f4557829003601f168201915b505050505090806002018054600181600116156101000203166002900480601f0160208091040260200160405190810160405280929190818152602001828054600181600116156101000203166002900480156110005780601f10610fd557610100808354040283529160200191611000565b820191906000526020600020905b815481529060010190602001808311610fe357829003601f168201915b505050505090806003018054600181600116156101000203166002900480601f01602080910402602001604051908101604052809291908181526020018280546001816001161561010002031660029004801561109e5780601f106110735761010080835404028352916020019161109e565b820191906000526020600020905b81548152906001019060200180831161108157829003601f168201915b505050505090806004018054600181600116156101000203166002900480601f01602080910402602001604051908101604052809291908181526020018280546001816001161561010002031660029004801561113c5780601f106111115761010080835404028352916020019161113c565b820191906000526020600020905b81548152906001019060200180831161111f57829003601f168201915b505050505090806005018054600181600116156101000203166002900480601f0160208091040260200160405190810160405280929190818152602001828054600181600116156101000203166002900480156111da5780601f106111af576101008083540402835291602001916111da565b820191906000526020600020905b8154815290600101906020018083116111bd57829003601f168201915b505050505090806006018054600181600116156101000203166002900480601f0160208091040260200160405190810160405280929190818152602001828054600181600116156101000203166002900480156112785780601f1061124d57610100808354040283529160200191611278565b820191906000526020600020905b81548152906001019060200180831161125b57829003601f168201915b5050505050905087565b606080606080606080606060008060008a73ffffffffffffffffffffffffffffffffffffffff1673ffffffffffffffffffffffffffffffffffffffff1681526020019081526020016000209050806000018054600181600116156101000203166002900480601f0160208091040260200160405190810160405280929190818152602001828054600181600116156101000203166002900480156113675780601f1061133c57610100808354040283529160200191611367565b820191906000526020600020905b81548152906001019060200180831161134a57829003601f168201915b50505050509750806001018054600181600116156101000203166002900480601f0160208091040260200160405190810160405280929190818152602001828054600181600116156101000203166002900480156114065780601f106113db57610100808354040283529160200191611406565b820191906000526020600020905b8154815290600101906020018083116113e957829003601f168201915b50505050509650806002018054600181600116156101000203166002900480601f0160208091040260200160405190810160405280929190818152602001828054600181600116156101000203166002900480156114a55780601f1061147a576101008083540402835291602001916114a5565b820191906000526020600020905b81548152906001019060200180831161148857829003601f168201915b50505050509550806003018054600181600116156101000203166002900480601f0160208091040260200160405190810160405280929190818152602001828054600181600116156101000203166002900480156115445780601f1061151957610100808354040283529160200191611544565b820191906000526020600020905b81548152906001019060200180831161152757829003601f168201915b50505050509450806004018054600181600116156101000203166002900480601f0160208091040260200160405190810160405280929190818152602001828054600181600116156101000203166002900480156115e35780601f106115b8576101008083540402835291602001916115e3565b820191906000526020600020905b8154815290600101906020018083116115c657829003601f168201915b50505050509350806005018054600181600116156101000203166002900480601f0160208091040260200160405190810160405280929190818152602001828054600181600116156101000203166002900480156116825780601f1061165757610100808354040283529160200191611682565b820191906000526020600020905b81548152906001019060200180831161166557829003601f168201915b50505050509250806006018054600181600116156101000203166002900480601f0160208091040260200160405190810160405280929190818152602001828054600181600116156101000203166002900480156117215780601f106116f657610100808354040283529160200191611721565b820191906000526020600020905b81548152906001019060200180831161170457829003601f168201915b5050505050915050919395979092949650565b600060606000808473ffffffffffffffffffffffffffffffffffffffff1673ffffffffffffffffffffffffffffffffffffffff1681526020019081526020016000206000018054600181600116156101000203166002900480601f01602080910402602001604051908101604052809291908181526020018280546001816001161561010002031660029004801561180d5780601f106117e25761010080835404028352916020019161180d565b820191906000526020600020905b8154815290600101906020018083116117f057829003601f168201915b5050505050905060008151141561182857600091505061182e565b60019150505b919050565b604051806020016040528060008152506000808373ffffffffffffffffffffffffffffffffffffffff1673ffffffffffffffffffffffffffffffffffffffff168152602001908152602001600020600001908051906020019061189792919061195e565b508073ffffffffffffffffffffffffffffffffffffffff167f0b6cc1736560b261cf186ac787327c60ef75690ea619f1750d9e7f44f58ee5af60405160405180910390a250565b828054600181600116156101000203166002900490600052602060002090601f016020900481019282601f1061191f57805160ff191683800117855561194d565b8280016001018555821561194d579182015b8281111561194c578251825591602001919060010190611931565b5b50905061195a91906119de565b5090565b828054600181600116156101000203166002900490600052602060002090601f016020900481019282601f1061199f57805160ff19168380011785556119cd565b828001600101855582156119cd579182015b828111156119cc5782518255916020019190600101906119b1565b5b5090506119da91906119de565b5090565b611a0091905b808211156119fc5760008160009055506001016119e4565b5090565b9056fea265627a7a72315820946b672a8bb60a143c1693cab66d3a8ac8faa495280fd01d26e0b4f26cf2162264736f6c63430005100032",
  "source": "pragma solidity ^0.5.0;\n\ncontract KeyRegistration {\n    // struct PreKey {\n    //     string preKeyId;\n    //     string preKeyPub;\n    //     bool isUsed;\n    // }\n\n    struct KeyBundle {\n        string keyId;\n        string userId;\n        string idPublicKey;\n        // PreKey[] preKeys;\n        string preKeyPub;\n        string signedPreKeyPub;\n        string signature;\n        string userSign;\n        // bool isUsed;\n    }\n\n    mapping(address => KeyBundle) public keyBundles;\n\n    event KeyBundleRegistered(\n        address indexed ownerAddress,\n        string indexed keyId,\n        string indexed userId\n    );\n    event KeyBundleRevoked(address indexed ownerAddress);\n\n    function createKeyBundle(\n        string memory keyId,\n        string memory userId,\n        string memory idPublicKey,\n        string memory preKeyPub,\n        string memory signedPreKeyPub,\n        string memory signature,\n        string memory userSign\n    ) public {\n        keyBundles[msg.sender] = KeyBundle({\n            keyId: keyId,\n            userId: userId,\n            idPublicKey: idPublicKey,\n            preKeyPub: preKeyPub,\n            signedPreKeyPub: signedPreKeyPub,\n            signature: signature,\n            userSign: userSign\n        });\n\n        emit KeyBundleRegistered(msg.sender, keyId, userId);\n    }\n\n    function getKeyBundle(address owner)\n        public\n        view\n        returns (\n            string memory keyId,\n            string memory userId,\n            string memory idPublicKey,\n            string memory preKeyPub,\n            string memory signedPreKeyPub,\n            string memory signature,\n            string memory userSign\n        )\n    {\n        KeyBundle storage keyBundle = keyBundles[owner];\n        // uint256 len = keyBundle.preKeys.length;\n        // PreKey memory preKey;\n        // for (uint256 i = 0; i < len; i++) {\n        //     if (!keyBundle.preKeys[i].isUsed) {\n        //         preKey = keyBundle.preKeys[i];\n        //         keyBundles[owner].preKeys[i].isUsed = true;\n        //         // keyBundle.preKeys[i].isUsed = true;\n        //         // keyBundles[owner] = keyBundle;\n        //         break;\n        //     }\n        // }\n\n        keyId = keyBundle.keyId;\n        userId = keyBundle.userId;\n        idPublicKey = keyBundle.idPublicKey;\n        preKeyPub = keyBundle.preKeyPub;\n        signedPreKeyPub = keyBundle.signedPreKeyPub;\n        signature = keyBundle.signature;\n        userSign = keyBundle.userSign;\n        // isUsed = keyBundle.isUsed;\n    }\n\n    function revokeKeyBundle(address owner) public {\n        keyBundles[owner].keyId = \"\";\n        emit KeyBundleRevoked(owner);\n    }\n\n    function isRegistered(address owner) public view returns (bool) {\n        bytes memory temp = bytes(keyBundles[owner].keyId);\n        if (temp.length == 0) {\n            return false;\n        }\n        return true;\n        // PreKey[] memory preKeys = keyBundles[owner].preKeys;\n        // uint256 len = preKeys.length;\n        // for (uint256 i = 0; i < len; i++) {\n        //     if (!preKeys[i].isUsed) {\n        //         return true;\n        //     }\n        // }\n        // return false;\n    }\n}\n",
  "sourcePath": "/home/fatt/project/TA/yama/src/truffle/contracts/KeyRegistration.sol",
  "compiler": {
    "name": "solc",
    "version": "0.5.16+commit.9c3226ce.Emscripten.clang"
  },
  "schemaVersion": "3.3.4",
  "updatedAt": "2021-09-20T23:04:49.578Z",
  "networkType": "ethereum",
  "devdoc": {
    "methods": {}
  },
  "userdoc": {
    "methods": {}
  }
}