{
  "contractName": "KeyRegistration",
  "abi": [
    {
      "anonymous": false,
      "inputs": [
        {
          "indexed": true,
          "internalType": "address",
          "name": "ownerAddress",
          "type": "address"
        },
        {
          "indexed": true,
          "internalType": "uint256",
          "name": "keyId",
          "type": "uint256"
        },
        {
          "indexed": true,
          "internalType": "string",
          "name": "userId",
          "type": "string"
        }
      ],
      "name": "KeyBundleRegistered",
      "type": "event"
    },
    {
      "anonymous": false,
      "inputs": [
        {
          "indexed": true,
          "internalType": "address",
          "name": "ownerAddress",
          "type": "address"
        }
      ],
      "name": "KeyBundleRevoked",
      "type": "event"
    },
    {
      "constant": true,
      "inputs": [
        {
          "internalType": "address",
          "name": "",
          "type": "address"
        }
      ],
      "name": "keyBundles",
      "outputs": [
        {
          "internalType": "uint256",
          "name": "keyId",
          "type": "uint256"
        },
        {
          "internalType": "string",
          "name": "userId",
          "type": "string"
        },
        {
          "internalType": "string",
          "name": "idPublicKey",
          "type": "string"
        },
        {
          "internalType": "string",
          "name": "preKeyPub",
          "type": "string"
        },
        {
          "internalType": "string",
          "name": "signedPreKeyPub",
          "type": "string"
        },
        {
          "internalType": "string",
          "name": "signature",
          "type": "string"
        }
      ],
      "payable": false,
      "stateMutability": "view",
      "type": "function"
    },
    {
      "constant": false,
      "inputs": [
        {
          "internalType": "uint256",
          "name": "keyId",
          "type": "uint256"
        },
        {
          "internalType": "string",
          "name": "userId",
          "type": "string"
        },
        {
          "internalType": "string",
          "name": "idPublicKey",
          "type": "string"
        },
        {
          "internalType": "string",
          "name": "preKeyPub",
          "type": "string"
        },
        {
          "internalType": "string",
          "name": "signedPreKeyPub",
          "type": "string"
        },
        {
          "internalType": "string",
          "name": "signature",
          "type": "string"
        }
      ],
      "name": "createKeyBundle",
      "outputs": [],
      "payable": false,
      "stateMutability": "nonpayable",
      "type": "function"
    },
    {
      "constant": true,
      "inputs": [
        {
          "internalType": "address",
          "name": "owner",
          "type": "address"
        }
      ],
      "name": "getKeyBundle",
      "outputs": [
        {
          "internalType": "uint256",
          "name": "keyId",
          "type": "uint256"
        },
        {
          "internalType": "string",
          "name": "userId",
          "type": "string"
        },
        {
          "internalType": "string",
          "name": "idPublicKey",
          "type": "string"
        },
        {
          "internalType": "string",
          "name": "preKeyPub",
          "type": "string"
        },
        {
          "internalType": "string",
          "name": "signedPreKeyPub",
          "type": "string"
        },
        {
          "internalType": "string",
          "name": "signature",
          "type": "string"
        }
      ],
      "payable": false,
      "stateMutability": "view",
      "type": "function"
    }
  ],
  "bytecode": "0x608060405234801561001057600080fd5b5061118b806100206000396000f3fe608060405234801561001057600080fd5b50600436106100415760003560e01c806325c9f3aa14610046578063a37b127d146102ba578063fc8c70261461052e575b600080fd5b6100886004803603602081101561005c57600080fd5b81019080803573ffffffffffffffffffffffffffffffffffffffff16906020019092919050505061084f565b60405180878152602001806020018060200180602001806020018060200186810386528b818151815260200191508051906020019080838360005b838110156100de5780820151818401526020810190506100c3565b50505050905090810190601f16801561010b5780820380516001836020036101000a031916815260200191505b5086810385528a818151815260200191508051906020019080838360005b83811015610144578082015181840152602081019050610129565b50505050905090810190601f1680156101715780820380516001836020036101000a031916815260200191505b50868103845289818151815260200191508051906020019080838360005b838110156101aa57808201518184015260208101905061018f565b50505050905090810190601f1680156101d75780820380516001836020036101000a031916815260200191505b50868103835288818151815260200191508051906020019080838360005b838110156102105780820151818401526020810190506101f5565b50505050905090810190601f16801561023d5780820380516001836020036101000a031916815260200191505b50868103825287818151815260200191508051906020019080838360005b8381101561027657808201518184015260208101905061025b565b50505050905090810190601f1680156102a35780820380516001836020036101000a031916815260200191505b509b50505050505050505050505060405180910390f35b6102fc600480360360208110156102d057600080fd5b81019080803573ffffffffffffffffffffffffffffffffffffffff169060200190929190505050610b83565b60405180878152602001806020018060200180602001806020018060200186810386528b818151815260200191508051906020019080838360005b83811015610352578082015181840152602081019050610337565b50505050905090810190601f16801561037f5780820380516001836020036101000a031916815260200191505b5086810385528a818151815260200191508051906020019080838360005b838110156103b857808201518184015260208101905061039d565b50505050905090810190601f1680156103e55780820380516001836020036101000a031916815260200191505b50868103845289818151815260200191508051906020019080838360005b8381101561041e578082015181840152602081019050610403565b50505050905090810190601f16801561044b5780820380516001836020036101000a031916815260200191505b50868103835288818151815260200191508051906020019080838360005b83811015610484578082015181840152602081019050610469565b50505050905090810190601f1680156104b15780820380516001836020036101000a031916815260200191505b50868103825287818151815260200191508051906020019080838360005b838110156104ea5780820151818401526020810190506104cf565b50505050905090810190601f1680156105175780820380516001836020036101000a031916815260200191505b509b50505050505050505050505060405180910390f35b61084d600480360360c081101561054457600080fd5b81019080803590602001909291908035906020019064010000000081111561056b57600080fd5b82018360208201111561057d57600080fd5b8035906020019184600183028401116401000000008311171561059f57600080fd5b91908080601f016020809104026020016040519081016040528093929190818152602001838380828437600081840152601f19601f8201169050808301925050505050505091929192908035906020019064010000000081111561060257600080fd5b82018360208201111561061457600080fd5b8035906020019184600183028401116401000000008311171561063657600080fd5b91908080601f016020809104026020016040519081016040528093929190818152602001838380828437600081840152601f19601f8201169050808301925050505050505091929192908035906020019064010000000081111561069957600080fd5b8201836020820111156106ab57600080fd5b803590602001918460018302840111640100000000831117156106cd57600080fd5b91908080601f016020809104026020016040519081016040528093929190818152602001838380828437600081840152601f19601f8201169050808301925050505050505091929192908035906020019064010000000081111561073057600080fd5b82018360208201111561074257600080fd5b8035906020019184600183028401116401000000008311171561076457600080fd5b91908080601f016020809104026020016040519081016040528093929190818152602001838380828437600081840152601f19601f820116905080830192505050505050509192919290803590602001906401000000008111156107c757600080fd5b8201836020820111156107d957600080fd5b803590602001918460018302840111640100000000831117156107fb57600080fd5b91908080601f016020809104026020016040519081016040528093929190818152602001838380828437600081840152601f19601f820116905080830192505050505050509192919290505050610efb565b005b6000602052806000526040600020600091509050806000015490806001018054600181600116156101000203166002900480601f0160208091040260200160405190810160405280929190818152602001828054600181600116156101000203166002900480156109015780601f106108d657610100808354040283529160200191610901565b820191906000526020600020905b8154815290600101906020018083116108e457829003601f168201915b505050505090806002018054600181600116156101000203166002900480601f01602080910402602001604051908101604052809291908181526020018280546001816001161561010002031660029004801561099f5780601f106109745761010080835404028352916020019161099f565b820191906000526020600020905b81548152906001019060200180831161098257829003601f168201915b505050505090806003018054600181600116156101000203166002900480601f016020809104026020016040519081016040528092919081815260200182805460018160011615610100020316600290048015610a3d5780601f10610a1257610100808354040283529160200191610a3d565b820191906000526020600020905b815481529060010190602001808311610a2057829003601f168201915b505050505090806004018054600181600116156101000203166002900480601f016020809104026020016040519081016040528092919081815260200182805460018160011615610100020316600290048015610adb5780601f10610ab057610100808354040283529160200191610adb565b820191906000526020600020905b815481529060010190602001808311610abe57829003601f168201915b505050505090806005018054600181600116156101000203166002900480601f016020809104026020016040519081016040528092919081815260200182805460018160011615610100020316600290048015610b795780601f10610b4e57610100808354040283529160200191610b79565b820191906000526020600020905b815481529060010190602001808311610b5c57829003601f168201915b5050505050905086565b6000606080606080606060008060008973ffffffffffffffffffffffffffffffffffffffff1673ffffffffffffffffffffffffffffffffffffffff168152602001908152602001600020905080600001549650806001018054600181600116156101000203166002900480601f016020809104026020016040519081016040528092919081815260200182805460018160011615610100020316600290048015610c6e5780601f10610c4357610100808354040283529160200191610c6e565b820191906000526020600020905b815481529060010190602001808311610c5157829003601f168201915b50505050509550806002018054600181600116156101000203166002900480601f016020809104026020016040519081016040528092919081815260200182805460018160011615610100020316600290048015610d0d5780601f10610ce257610100808354040283529160200191610d0d565b820191906000526020600020905b815481529060010190602001808311610cf057829003601f168201915b50505050509450806003018054600181600116156101000203166002900480601f016020809104026020016040519081016040528092919081815260200182805460018160011615610100020316600290048015610dac5780601f10610d8157610100808354040283529160200191610dac565b820191906000526020600020905b815481529060010190602001808311610d8f57829003601f168201915b50505050509350806004018054600181600116156101000203166002900480601f016020809104026020016040519081016040528092919081815260200182805460018160011615610100020316600290048015610e4b5780601f10610e2057610100808354040283529160200191610e4b565b820191906000526020600020905b815481529060010190602001808311610e2e57829003601f168201915b50505050509250806005018054600181600116156101000203166002900480601f016020809104026020016040519081016040528092919081815260200182805460018160011615610100020316600290048015610eea5780601f10610ebf57610100808354040283529160200191610eea565b820191906000526020600020905b815481529060010190602001808311610ecd57829003601f168201915b505050505091505091939550919395565b6040518060c00160405280878152602001868152602001858152602001848152602001838152602001828152506000803373ffffffffffffffffffffffffffffffffffffffff1673ffffffffffffffffffffffffffffffffffffffff168152602001908152602001600020600082015181600001556020820151816001019080519060200190610f8c9291906110b1565b506040820151816002019080519060200190610fa99291906110b1565b506060820151816003019080519060200190610fc69291906110b1565b506080820151816004019080519060200190610fe39291906110b1565b5060a08201518160050190805190602001906110009291906110b1565b50905050846040518082805190602001908083835b602083106110385780518252602082019150602081019050602083039250611015565b6001836020036101000a0380198251168184511680821785525050505050509050019150506040518091039020863373ffffffffffffffffffffffffffffffffffffffff167ff7bf21b5bcccbcb8d6a60bdbc020d1df7a74187b421900c0fea48b2c8c8c83f060405160405180910390a4505050505050565b828054600181600116156101000203166002900490600052602060002090601f016020900481019282601f106110f257805160ff1916838001178555611120565b82800160010185558215611120579182015b8281111561111f578251825591602001919060010190611104565b5b50905061112d9190611131565b5090565b61115391905b8082111561114f576000816000905550600101611137565b5090565b9056fea265627a7a723158200a569106f666443a8205e7d15e39c552f3c2bedcc4b10f590f950b08147223c264736f6c63430005100032",
  "source": "pragma solidity ^0.5.0;\n\ncontract KeyRegistration {\n    struct KeyBundle {\n        uint256 keyId;\n        string userId;\n        string idPublicKey;\n        string preKeyPub;\n        string signedPreKeyPub;\n        string signature;\n    }\n\n    mapping(address => KeyBundle) public keyBundles;\n\n    event KeyBundleRegistered(\n        address indexed ownerAddress,\n        uint256 indexed keyId,\n        string indexed userId\n    );\n    event KeyBundleRevoked(address indexed ownerAddress);\n\n    function createKeyBundle(\n        uint256 keyId,\n        string memory userId,\n        string memory idPublicKey,\n        string memory preKeyPub,\n        string memory signedPreKeyPub,\n        string memory signature\n    ) public {\n        // uint256 keyBundleId = keyBundles.length;\n\n        keyBundles[msg.sender] = KeyBundle({\n            keyId: keyId,\n            userId: userId,\n            idPublicKey: idPublicKey,\n            preKeyPub: preKeyPub,\n            signedPreKeyPub: signedPreKeyPub,\n            signature: signature\n        });\n\n        emit KeyBundleRegistered(msg.sender, keyId, userId);\n        // return keyBundleId;\n    }\n\n    function getKeyBundle(address owner)\n        public\n        view\n        returns (\n            uint256 keyId,\n            string memory userId,\n            string memory idPublicKey,\n            string memory preKeyPub,\n            string memory signedPreKeyPub,\n            string memory signature\n        )\n    {\n        KeyBundle storage keyBundle = keyBundles[owner];\n\n        keyId = keyBundle.keyId;\n        userId = keyBundle.userId;\n        idPublicKey = keyBundle.idPublicKey;\n        preKeyPub = keyBundle.preKeyPub;\n        signedPreKeyPub = keyBundle.signedPreKeyPub;\n        signature = keyBundle.signature;\n    }\n}\n",
  "sourcePath": "/home/fatt/project/TA/yama/src/truffle/contracts/KeyRegistration.sol",
  "compiler": {
    "name": "solc",
    "version": "0.5.16+commit.9c3226ce.Emscripten.clang"
  },
  "schemaVersion": "3.3.4",
  "updatedAt": "2021-07-11T06:48:15.059Z",
  "networkType": "ethereum",
  "devdoc": {
    "methods": {}
  },
  "userdoc": {
    "methods": {}
  }
}